:100000000C944D000C946C000C946C000C946C00DF
:100010000C946C000C946C000C946C000C946C00B0
:100020000C946C000C946C000C946C000C946C00A0
:100030000C946C000C946C000C946C000C946C0090
:100040000C946C000C946C000C946C000C946C0080
:100050000C946C000C946C000C946C000C946C0070
:100060000C946C000C946C000C946C000C946C0060
:100070000C946C000C946C000C946C000C946C0050
:100080000C946C000C946C000C946C008B0092002F
:10009000BB00C200C900E400FF0011241FBECFEF67
:1000A000D0E4DEBFCDBF11E0A0E0B1E0E2E8F2E0D5
:1000B00000E00BBF02C007900D92AE30B107D9F738
:1000C00021E0AEE0B1E001C01D92A031B207E1F73E
:1000D0000E942A010C943F010C940000CF93C82F7A
:1000E0008A3019F48DE00E946E008091C00085FF77
:1000F000FCCFC093C60080E090E0CF910895E091DE
:100100000E01F0910F01E730F10508F089C0EA5BBC
:10011000FF4F0C94360181E090E090930F018093A3
:100120000E0182C080B1833039F486E090E0909374
:100130000F0180930E0178C0019B0AC086B188230D
:1001400039F083E090E090930F0180930E016CC032
:10015000009B0AC086B1893038F482E090E0909329
:100160000F0180930E0160C081E090E090930F0139
:1001700080930E0159C084E090E090930F0180932A
:100180000E0152C085E090E090930F0180930E0124
:100190004BC080B1833039F486E090E090930F013A
:1001A00080930E0141C080B1811107C081E090E0D1
:1001B00090930F0180930E0137C084E090E09093FC
:1001C0000F0180930E0130C080B1833039F486E096
:1001D00090E090930F0180930E0126C080B18111B1
:1001E00007C081E090E090930F0180930E011CC046
:1001F00085E090E090930F0180930E0115C080B1CF
:10020000811107C081E090E090930F0180930E016F
:100210000BC086E090E090930F0180930E0104C024
:1002200010920F0110920E0180910E0190910F011A
:100230008330910549F08630910551F0029749F4D9
:1002400086B18F5F88B9089586B1815088B90895C5
:1002500018B8089511B812B88FEF87B918B810926E
:100260000F0110920E010E947F00FDCFEE0FFF1FC5
:100270000024001C0BBE0790F691E02D0994F89421
:02028000FFCFAE
:0E02820000000002000000006E0000000000FE
:00000001FF
