:100000000C9446000C945D000C945D000C945D0013
:100010000C945D000C945D000C945D000C945D00EC
:100020000C945D000C945D000C945D000C945D00DC
:100030000C945D000C945D000C945D000C945D00CC
:100040000C945D000C945D000C945D000C945D00BC
:100050000C945D000C945D000C945D000C945D00AC
:100060000C945D000C945D000C945D000C945D009C
:100070000C945D000C945D000C945D000C945D008C
:100080000C945D000C945D000C945D0011241FBE67
:10009000CFEFD0E4DEBFCDBF11E0A0E0B1E0E8E5F6
:1000A000F1E000E00BBF02C007900D92AE30B10747
:1000B000D9F70E9470000C94AA000C940000CF9312
:1000C000C82F8A3019F48DE00E945F008091C00033
:1000D00085FFFCCFC093C60080E090E0CF910895EB
:1000E00011B812B814B815B88FEF87B918B890E0E6
:1000F00080B180958F7011F418B890E02FEF280F21
:10010000223010F490E298B92DEF280F223010F42D
:1001100090E398B92BEF280F223010F498E398B9A8
:1001200029EF280F233010F49CE398B926EF280F0D
:10013000233010F49EE398B923EF280F233010F4F6
:100140009FE398B9853018F4906498B9D1CF9F7B1C
:0801500098B9CECFF894FFCF5F
:0E01580000000002000000005F000000000038
:00000001FF
