:100000000C9454000C9473000C9473000C947300C3
:100010000C9473000C9473000C9473000C94730094
:100020000C9473000C9473000C9473000C94730084
:100030000C9473000C9473000C9473000C94730074
:100040000C9473000C9473000C9473000C94730064
:100050000C9473000C9473000C9473000C94730054
:100060000C9473000C9473000C9473000C94730044
:100070000C9473000C9473000C9473000C94730034
:100080000C9473000C9473000C9473009200AB00FA
:100090009900CF00BD00F300E100150124011B0110
:1000A00036012D0148013F0111241FBECFEFD0E4DE
:1000B000DEBFCDBF11E0A0E0B1E0EEEDF2E000E088
:1000C0000BBF02C007900D92AE30B107D9F721E007
:1000D000AEE0B1E001C01D92A131B207E1F70E948C
:1000E00058010C946D010C940000CF93C82F8A30F6
:1000F00019F48DE00E9475008091C00085FFFCCF4F
:10010000C093C60080E090E0CF910895E0910E0189
:10011000F0910F01E730F10508F077C0EA5BFF4F7F
:100120000C94640181E090E090930F0180930E01A4
:1001300070C080911001811107C081E090E0909320
:100140000F0180930E0165C082E090E090930F0153
:1001500080930E015EC080911001813039F484E0FB
:1001600090E090930F0180930E0153C081E090E0E6
:1001700090930F0180930E014CC08091100181116A
:1001800007C083E090E090930F0180930E0141C07F
:1001900084E090E090930F0180930E013AC080912B
:1001A0001001813039F486E090E090930F01809344
:1001B0000E012FC083E090E090930F0180930E0119
:1001C00028C080911001811107C085E090E09093D4
:1001D0000F0180930E011DC086E090E090930F0107
:1001E00080930E0116C080911001813039F482E0B5
:1001F00090E090930F0180930E010BC085E090E09A
:1002000090930F0180930E0104C010920F01109281
:100210000E01E0910E01F0910F01E730F10508F0B9
:1002200040C0E35BFF4F0C94640190B181E08927EB
:1002300081708093100190B181E089278170809353
:10024000100186E388B9089590B181E08927817013
:100250008093100186E388B9089590B181E08927E1
:100260008170809310018BE188B9089590B181E08D
:1002700089278170809310018BE188B9089590B12E
:1002800081E089278170809310018DE288B90895FB
:1002900090B181E089278170809310018DE288B947
:1002A000089590B181E089278170809310010895AD
:1002B00011B88FEF82B987B918B810920F01109258
:1002C0000E010E948600FDCFEE0FFF1F0024001CD0
:0E02D0000BBE0790F691E02D0994F894FFCF35
:0E02DE0000000002000000007500000000009B
:00000001FF
